:1000000001308A006B290000C337ED306E32EF39C2
:100010002038613961106536A022F331EC30F637B3
:100020003A050D00AD16AD16AD16AD16AD16AD16F2
:10003000AD16AD16AD16AD16AD16AD16AD16AD16A8
:10004000AD16AD16AD16AD168A0600014110AD16FF
:100050002D10F030F230A032EE316537E4327210FC
:10006000CC224410E432A022F331EC30F637A01851
:100070008A0600014210AD162D10F030F230A0308B
:10008000F030E7307210CC224410E432A022F33179
:10009000EC30F637A0188A0600014310AD162D107B
:1000A000F030F230A032EE316537E4327210CC22FB
:1000B0004410E432A022F331EC30F63720198A06DE
:1000C00000014410AD162D10F030F230A030F030A9
:1000D000E7307210CC224410E432A022F331EC302D
:1000E000F63720198A060001AD16AD16AD16AD160D
:1000F000AD16AD16AD16AD16AD16AD16AD16AD16E8
:10010000AD16AD16AD16AD16AD16AD168A060001CC
:10011000C5396339693161106136E73A6E10E337EA
:10012000ED306E326F050D00A531A03273107537BA
:10013000A0316139E131F43272106937F630EC34B4
:10014000E4372E050D000B08A4008B13831603174C
:100150008C170C140000000083120313A41B8B17D0
:1001600003170C087F390319F9280313A400031798
:100170000D080313A50003170F080313A600240896
:100180000C1EC0289900250803178D0003132608AC
:1001900003178F0003130B08A7008B138316031795
:1001A0008C170C140000000083120313A71B8B177D
:1001B00003170C0D0E0D7F390319F9280313A40042
:1001C00003170D080313A50003170F080313A60058
:1001D00024080C1EE9289900250803178D00031335
:1001E000260803178F008D0A03198F0A0313A3280B
:1001F0000317031308002430840083130008031935
:100200000F290130F800F701F70B0429F80B032937
:100210004A30F700F70B0A290D29800B0129080045
:100220000B08A5008B13831603178C170C14000002
:10023000000083120313A51B8B170318482903170B
:100240000C087F390313A50003170D080313A6003C
:1002500003170F080313A70025080C1E2D2999006A
:10026000260803178D000313270803178F000313B5
:100270000B08A8008B13831603178C170C140000AF
:10028000000083120313A81B8B17A40B48296829AD
:1002900003170C0D0E0D7F390313A50003170D086E
:1002A0000313A60003170F080313A70025080C1E4D
:1002B00057299900260803178D00031327080317F1
:1002C0008F008D0A03198F0A03100313A40B102942
:1002D0008A110A12622A03081F3983001930831613
:1002E0009900A6309800903083129800FF30A0004B
:1002F0009412403083169400223083129400A0128E
:100300002008831687008312201620088316870092
:100310008312A0112008831687008312A201A10175
:1003200083161F149F141F159F1107309C00831301
:1003300008108312081483168810831288149412EC
:10034000A012200883168700831220162008831627
:1003500087008312A01120088316870020308312A3
:1003600094004030831694000430831203178D00EC
:1003700000308F000313A320123003178D000030CC
:100380008F000313A320263003178D0000308F0049
:100390000313A3203A3003178D0000308F0003139E
:1003A000A3204D3003178D0000308F000313A320CE
:1003B000613003178D0000308F000313A3207430C9
:1003C00003178D0000308F000313A320883003171C
:1003D0008D0000308F000313A3208C1EED291A0816
:1003E000A3002308603C0318FC2923087A3C031C63
:1003F000FC292308DF39FD292308A3002308413AFB
:1004000003190C2A033A03191E2A013A0319302A48
:10041000073A0319422A542A831608108312081037
:100420001308013093008316140C031C142A0810BF
:10043000831208140A30A400FB20622A83160810D5
:10044000831208101308023093008316140C031C47
:10045000262A0810831208140A30A400FB20622AFE
:1004600083168810831288101308013093008316B6
:10047000140C031C382A8810831288140A30A40034
:10048000FB20622A8316881083128810130802301A
:1004900093008316140C031C4A2A881083128814B4
:1004A0000A30A400FB20622A23080C1E552A99005A
:1004B000953003178D0000308F0003101B3003139D
:0804C000A4001029ED296300DE
:02400E00713F00
:00000001FF
;PIC16F877A
;CRC=CCB6  CREATED="17-nov.-24 22:09"
