:1000000002308A005A2A0000C337ED306E32EF39D1
:10001000203861396110EC377310C5396336613BA4
:100020006F1D8A060000AD16AD16AD16AD16AD16E5
:10003000AD16AD16AD16AD16AD16AD16AD16AD16A8
:10004000AD16AD16AD16AD16AD168A0600014110FF
:10005000AD162D10F030F230A032EE316537E432BB
:100060007210CC224410E432A022F331EC30F63787
:10007000A0188A0600015310AD162D10F030F23092
:10008000A030F030E7307210CC224410E432A022CD
:10009000F331EC30F637A0188A0600014410AD1693
:1000A0002D10F030F230A031F5326E3A6110E432AA
:1000B000A022F331EC30F637A0188A0600015A105E
:1000C000AD162D10F030F230A032EE316537E4324B
:1000D0007210CC224410E432A022F331EC30F63717
:1000E00020198A0600015810AD162D10F030F2309C
:1000F000A030F030E7307210CC224410E432A0225D
:10010000F331EC30F63720198A0600014310AD16A2
:100110002D10F030F230A031F5326E3A6110E43239
:10012000A022F331EC30F63720198A060001AD1613
:10013000AD16AD16AD16AD16AD16AD16AD16AD16A7
:10014000AD16AD16AD16AD16AD16AD16AD16AD1697
:10015000AD168A060001C53963396931611061360F
:10016000E73A6E10E337ED306E326F050D00CC309C
:10017000A031F5326E3A6110E4326C10E539633625
:10018000613B6F103110E5393A10A53A20050D009A
:10019000CC30A031F5326E3A6110E4326C10E539A2
:1001A0006336613B6F103210E5393A102532200575
:1001B0000D00A531A03273107537A0316139E131DE
:1001C000F43272106937F630EC34E4372E050D0046
:1001D0000B08A5008B13831603178C170C14000053
:1001E000000083120313A51B8B1703170C087F391C
:1001F00003193E290313A50003170D080313A600D6
:1002000003170F080313A70025080C1E05299900E2
:10021000260803178D000313270803178F00031305
:100220000B08A8008B13831603178C170C140000FF
:10023000000083120313A81B8B1703170C0D0E0D60
:100240007F3903193E290313A50003170D08031373
:10025000A60003170F080313A70025080C1E2E295C
:100260009900260803178D000313270803178F0032
:100270008D0A03198F0A0313E828031703130800D4
:100280002530840083130008031954290130F80035
:10029000F701F70B4929F80B48294A30F700F70B0B
:1002A0004F295229800B462908000B08A6008B1302
:1002B000831603178C170C1400000000831203131D
:1002C000A61B8B1703188D2903170C087F390313FE
:1002D000A60003170D080313A70003170F08031345
:1002E000A80026080C1E72299900270803178D0004
:1002F0000313280803178F0003130B08A9008B139F
:10030000831603178C170C140000000083120313CC
:10031000A91B8B17A50B8D29AD2903170C0D0E0DED
:100320007F390313A60003170D080313A700031753
:100330000F080313A80026080C1E9C299900270803
:1003400003178D000313280803178F008D0A031964
:100350008F0A03100313A50B552908002C08F80178
:100360002B020318B6292B08F700C229F701083021
:10037000AD00AB0DF70D2C0877020318F700F80D50
:10038000AD0BB929080078082508AB006430AC0033
:10039000AE217708A50078083030031DD629A61CA9
:1003A000DE29A619DE29261A2030D929A6112612FF
:1003B0002614F80778080C1EDB2999002508AB00E5
:1003C0000A30AC00AE217708A50078083030031D54
:1003D000EF29A619F429261CF429261A2030F8073B
:1003E00078080C1EF12999003030A50725080C1E4D
:1003F000F72999008A110A126A2B2030261E303004
:10040000A7002508F700A51F0D2AF709F70A7708A6
:10041000A5002D30A700A61726142508AB006430D0
:10042000AC00AE217708A50030307807A800250879
:10043000AB000A30AC00AE2130307707AA00303074
:100440007807A9002708F7003030280203192C2A62
:10045000A614A61B2615402A2708A8002030A700AE
:10046000303029020319382A2614A61BA614402A64
:10047000031D2614031D402A2808A9002030A800C7
:100480002619472AA6184B2A26184F2A532A270826
:100490000C1E482A990028080C1E4C2A990029088D
:1004A0000C1E502A99002A080C1E542A99008A1101
:1004B0000A12D12B03081F398300193083169900C3
:1004C000A6309800903083129800FF30A00094125C
:1004D000403083169400223083129400A01220082A
:1004E0008316870083122016200883168700831244
:1004F000A0112008831687008312A101A301A20185
:1005000083161F149F141F159F1107309C0083131F
:10051000081083120814831688108312881494120A
:10052000A012200883168700831220162008831645
:1005300087008312A01120088316870020308312C1
:1005400094004030831694000430831203178D000A
:1005500000308F000313E820133003178D000030A4
:100560008F000313E820273003178D0000308F0021
:100570000313E8203B3003178D0000308F00031376
:10058000E8204E3003178D0000308F000313E82061
:100590005F3003178D0000308F000313E8207330A5
:1005A00003178D0000308F000313E82086300317F7
:1005B0008D0000308F000313E820973003178D0063
:1005C00000308F000313E820AB3003178D0000309C
:1005D0008F000313E8208C1EEB2A1A08A4002408BD
:1005E000603C0318FA2A24087A3C031CFA2A2408DF
:1005F000DF39FB2A2408A4002408413A0319102BF0
:10060000123A0319222B173A0319342B1E3A0319F5
:10061000772B023A0319892B1B3A03199B2BDE2BEC
:1006200083160810831208101308013093008316F4
:10063000140C031C182B0810831208140A30A50090
:100640004021EC2B83160810831208101308023087
:1006500093008316140C031C2A2B08108312081411
:100660000A30A5004021EC2B8316081083120810D5
:100670001308033093008316140C031C3C2B081042
:10068000831208140A30A500402183160810831233
:100690000810130893018316140C031C4C2B8312AF
:1006A0001308A100130893018316140C031C552B87
:1006B000081083120814B73003178D0000308F0024
:1006C00003101C300313A50055212108A5001B3081
:1006D000A600C32920300C1E6B2B99000A300C1E7B
:1006E0006F2B99000D300C1E732B9900EC2B831689
:1006F0008810831288101308013093008316140C9D
:10070000031C7F2B8810831288140A30A500402117
:10071000EC2B831688108312881013080230930084
:100720008316140C031C912B8810831288140A3032
:10073000A5004021EC2B8316881083128810130823
:10074000033093008316140C031CA32B8810831210
:1007500088140A30A500402183168810831288105F
:10076000130893018316140C031CB32B8312130874
:10077000A100130893018316140C031CBC2B8810D2
:1007800083128814C83003178D0000308F000310C7
:100790001C300313A50055212108A5001830A60020
:1007A000FD2920300C1ED22B99000A300C1ED62BAE
:1007B00099000D300C1EDA2B9900EC2B24080C1E2E
:1007C000DF2B9900DA3003178D0000308F00031003
:0C07D0001B300313A5005521EB2A630029
:02400E00713F00
:00000001FF
;PIC16F877A
;CRC=A4D1  CREATED="18-nov.-24 15:53"
