:1000000000308A004E280000FF00030E8301A1008B
:100010000A08A0008A010408A2007708A300780853
:10002000A4007908A5007A08A600831383128C30F7
:100030008400801D1D288C192E2822088400230886
:10004000F7002408F8002508F9002608FA0020081F
:100050008A00210E8300FF0E7F0E09008A110A120A
:1000600031288316140C031C322883121308A800AD
:100070002808013A03194028033A031945284A2859
:1000800083160510831205144A288316051083125F
:1000900005104A288C118A110A121D2803081F39DD
:1000A0008300193083169900A6309800903083128F
:1000B0009800FF30A700800194124030831694000E
:1000C000243083129400A712270883168700831216
:1000D000271627088316870085168312A715270879
:1000E000831687001F149F141F159F1107309C0053
:1000F00083138C15C03083128B0483160510831272
:06010000051481286300D4
:02400E00713F00
:00000001FF
;PIC16F877A
;CRC=24E8  CREATED="17-nov.-24 22:26"
